:0400000065EF3BF07D
:10746A001200016E01C0ADFF9EB81200FDD7000EDA
:10747A00B06E100EAF6EB886AC84AC98AC9CAC8A79
:10748A00AB8E1200056E010E036E0550C0090BEC9F
:10749A003BF0020E036E0550C0090BEC3BF01200E4
:1074AA00056E010E036E0550B8090BEC3BF0020E97
:1074BA00036E0550B8090BEC3BF01200818A010EED
:1074CA00036E3F0E0BEC3BF0020E036E3F0E0BEC0D
:1074DA003BF0000E47EC3AF012005065696C696E99
:1074EA00204E690A000100506F696E74733A2020B9
:1074FA00203020204C697665733A0A000150030255
:10750A00F3CF05F0F4CF06F001500402F35006263B
:10751A0002500302F350062605C001F006C002F02D
:10752A001200010E0F01386F000E396F000E3B6F0B
:10753A00000E806E000E816E000E836E070E926E34
:10754A00000E936E000E956E1200130E0C6E2D0E29
:10755A000D6E000EE9EC3BF0150E0C6E2D0E0D6E45
:10756A00000EE9EC3BF0170E0C6E2D0E0D6E000EA0
:10757A00E9EC3BF01200026E9568000E936E02046D
:10758A00D8B48190020E0218D8B48192818681946F
:10759A0000F0818800F083CF01F0819801BEF9D70D
:1075AA00818081821200000E046E000E036E035069
:1075BA00250FD96EDA6ADF50026E025036EC3AF0C5
:1075CA00034A042A04BEF3D7045005E1140E035CEF
:1075DA00D8B01200ECD71200E000C0008000800092
:1075EA00C000E000FE00FF00FD005F00D7000700BA
:1075FA0006000100030007007F005F000F007F0004
:10760A00470003000000000000000000046E035061
:10761A00C0EC3AF0000E936E0304D8B48190020EC7
:10762A000318D8B481928196819400F0818800F081
:10763A0004C083FF000E956E00F0819881808182DC
:10764A001200056E400E05600CD0010E036E055047
:10765A0040090BEC3BF0020E036E400E0BEC3BF0C4
:10766A001200010E036E7F0E0BEC3BF0020E036E4E
:10767A000550C00F40090BEC3BF01200186E000ECB
:10768A001A6E000E196E0ED0155019240C6E165073
:10769A00D96EDA6ADF500D6E1850E9EC3BF0162A03
:1076AA00194A1A2A1650D96EDA6A0A0EDE18D8B49E
:1076BA0012001650D96EDA6ADF50D8B41200E4D735
:1076CA00E20EF66E750EF76E000EF86E00EE60F0C2
:1076DA0010EE34F00900F5CFEEFFE550E150FAE183
:1076EA00E40EF66E740EF76E000EF86E00EE25F0DC
:1076FA0010EE22F00900F5CFEEFFE550E150FAE175
:10770A00486A476A000EF86E000163EF3CF0086EA3
:10771A00400E066004D0000E0A6E010E03D0000E61
:10772A000A6E020E096E09C00BF0085055EC3AF0C9
:10773A00065026EC3BF00B50C0EC3AF0000E936E6C
:10774A000B04D8B48190020E0B18D8B4819281969A
:10775A00818400F0818800F007C083FF000E956ED7
:10776A0000F08198818081821200126E12C013F09B
:10777A00146A1CD00DC015F0166A09D015C006F09F
:10778A00000E076E13508CEC3BF0154A162A0E5069
:10779A000F6E106A15500F5C1050800A116E165049
:1077AA00800A1158D8B0EAD7134A142A0C500F6E1F
:1077BA00106A13500F5C1050800A116E1450800A20
:1077CA001158D8A01200D6D7106EE00E0D24016E03
:1077DA00026AFF0E0222000E046E050E036E83EC8F
:1077EA003AF001C011F002C012F00C50050DF3CFAF
:1077FA000CF0000E146E000E136E0B0E1124F66EB2
:10780A007E0E1220F76E0800F5500E6E0F6A0CC03D
:10781A0006F00EC007F010508CEC3BF00C2A114A0F
:10782A00122A134A142A14BEE8D7145005E1050E89
:10783A00135CD8B01200E1D71200000E166E000ECB
:10784A00156E0CC019F00DC01AF02DD0000E186E6E
:10785A00000E176E10C01BF011C01CF016D01BC012
:10786A0006F01750020DF3CF14F015501A0DF3500D
:10787A00600F1424D96EDA6ADF50076E19508CEC47
:10788A003BF0174A182A1B4A1C2A12501B5C1C5030
:10789A00800A146E1350800A1458D8A0E0D7154AEB
:1078AA00162A194A1A2A0E50195C1A50800A146E9E
:1078BA000F50800A1458D8B01200C8D796EC3AF084
:1078CA0035EC3AF03CEC3AF063EC3AF0070E0C6E09
:1078DA00000E0D6E7F0E0E6E000EBAEC3BF0000E1F
:1078EA0047EC3AF0D8EC3AF047504810D8A407D001
:1078FA00ACEC3CF0000E486E010E476EF5D747041B
:10790A004810D8A4F1D730043110D8A4EDD7000E0E
:10791A00156E320E166E000E43EC3BF0AAEC3AF0EE
:10792A00000E0D6E060E0C6E000E0F6E080E0E6E19
:10793A00000E116E000E106E000E136E0D0E126EFA
:10794A0022EC3CF0000E316E000E306ECDD7000EE8
:10795A001C6E000E1B6E000E1E6E000E1D6E000EBB
:10796A00206E000E1F6E000E226E000E216E000E9B
:10797A00246E000E236E0B0E1B24F66E7A0E1C204C
:10798A00F76E0800F550196E1A6A1FC006F019C082
:10799A0007F01D508CEC3BF01F4A202A1B4A1C2A78
:1079AA00234A242A24BEE7D7245004E1800E235C0C
:1079BA00D8A0E1D7000E206E000E1F6E1D4A1E2AA7
:1079CA00214A222A22BED3D7225004E1080E215C82
:1079DA00D8A0CDD71F0E186E710E176E1E0EE82E88
:1079EA00FED7172EFCD7182EFAD700D0070E0C6E2A
:1079FA00000E0D6E7F0E0E6E000EBAEC3BF01200FA
:107A0A0000808080C0F0F0F8FFFFFFF8FFFFF8FF6A
:107A1A00FFFFF8FFFFF8FFFFFFFFFFFFF8F0F0801E
:107A2A0080808000000000000000000000000000CC
:107A3A00000000000000000000000000000000003C
:107A4A00000000000000000000008080808080802C
:107A5A00800000000000000000000000000000009C
:107A6A00000000000000000000000000000000000C
:107A7A0000000000000000000000000000000000FC
:107A8A0000D9DBDBDFFFFFFFFFFFFFFFFFFFFFFF89
:107A9A00FFFFFFFFFFFFFFFFFCFFFFFCFFFFFFDF12
:107AAA00DBDBDB0000000000000000F0F0F8F81853
:107ABA00181838FCF8F8E000000E0E0EFEFEFFFF64
:107ACA0007070700F0FCFEFF0F0701010101030190
:107ADA008300000000000000000000000000000019
:107AEA00000000000000000000000000000000008C
:107AFA00000000000000000000000000000000007C
:107B0A00006DEDEDEFFFFFFFFFFFFFFFFFFFFFFF40
:107B1A00FFFFFFFFFFFFFFFFFFFFFFFFFFFFFFED7D
:107B2A00EDEDED0000000000000000FFFFFFFF0C7C
:107B3A000C0C0E0707030100007070707F7F3F3F37
:107B4A00383838000107070F0E1C0C0C0C0C0E07F6
:107B5A000700000000000000000000000000000014
:107B6A00000000000000000000000000808080800B
:107B7A0080C0C0C0C08000000000000000000000FB
:107B8A00000707070F3F3F7FFFFFFF7FFFFF7FFFD2
:107B9A00FFFF7FFFFF7FFFFFFFFFFFFF7F3F3F07E3
:107BAA0007070600000000000000000101010100B3
:107BBA00000000808080808080800000000080803B
:107BCA00C0C0C0C060E0C0C0000000F0F0F0F0002B
:107BDA000000000000FCFCFCFC00000000FEFEFEB1
:107BEA00FEC6C6C6C6C66303000000FFFFFFFF61EC
:107BFA00E1F1F9FFBF9F0F00000000000000000044
:107C0A000000000000000000030303000303000358
:107C1A0083E3E0E3636063337363E303000000001C
:107C2A00E0F0FC7C7CFCF8E0C00000000E070707CF
:107C3A0007FFFFFFFF030303030100F8FEFFFF83B3
:107C4A0001000000008080C1000000FFFFFFFF0765
:107C5A000707070707FFFFFFFF000000007F7F7F7E
:107C6A003F303030303018180000001F1F1F1F002F
:107C7A00000003070F0F0F060400000000000000B9
:107C8A0000000000000000000000000000007CFF6F
:107C9A00FFFFC18000000080C0C0E00000E0FCFFE0
:107CAA00FF3F1F1C1C1F1F7F7F7E784000000000C3
:107CBA00003F3F1F1F0000000000000003030303F2
:107CCA000706060603030303000000030303030079
:107CDA00000000000000000000000000000000009A
:107CEA00000000000000000000000000000000008A
:107CFA00000000000000000000000000000000007A
:107D0A000000000000000000000000000000000069
:107D1A000101010303030301010000000000000048
:107D2A000000000000000000000000000000000049
:107D3A000000000000000000000000000000000039
:107D4A0000000000000000000000000000C0201039
:107D5A0010101020000010F0100000000000002099
:107D6A00101090600000E0101010E00000201010C9
:107D7A0090600000E0101010E00000000000000019
:107D8A0000000000000000000000000000000000E9
:107D9A0000000000000000000000000000000000D9
:107DAA0000000000000000000000000000000000C9
:107DBA0000000000000000000000000000000000B9
:107DCA00000000000000000000000000000304089A
:107DDA00080808040000080F080000000000000C52
:107DEA000A0908080000070808080700000C0A0921
:107DFA000808000007080808070000000000000043
:107E0A0000000000000000005F00000007000700FB
:107E1A00147F147F14242A7F2A12231308646236DB
:107E2A00495522500005030000001C224100004170
:107E3A00221C00082A1C2A0808083E08080050309C
:107E4A0000000F1F3C1F0F003030000020100804F4
:107E5A00023E5149453E00427F4000426151494637
:107E6A002141454B311814127F1027454545393CAD
:107E7A004A494930017109050336494949360649D3
:107E8A0049291E0036360000005636000000081444
:107E9A002241141414141441221408000201510935
:107EAA0006324979413E7E1111117E7F4949493690
:107EBA003E414141227F4141221C7F494949417F3C
:107ECA00090901013E414151327F0808087F0041FA
:107EDA007F41002040413F017F081422417F4040FA
:107EEA0040407F0204027F7F0408107F3E414141E7
:107EFA003E7F090909063E4151215E7F091929463B
:107F0A00464949493101017F01013F4040403F1F35
:107F1A002040201F7F2018207F6314081463030465
:107F2A00780403615149454300007F414102040836
:107F3A00102041417F0000040201020440404040F9
:107F4A0040000102040020545454787F48444438C5
:107F5A003844444420384444487F38545454180818
:107F6A007E090102081454543C7F08040478004432
:107F7A007D40002040443D00007F10284400417F9E
:107F8A0040007C041804787C08040478384444448B
:107F9A00387C14141408081414187C7C0804040887
:107FAA004854545420043F4440203C4040207C1C08
:107FBA002040201C3C4030403C44281028440C50AF
:107FCA0050503C4464544C44000836410000007F41
:107FDA000000004136080008082A1C08081C2A0864
:107FEA00080800AA0008003838380000000000001D
:067FFA0000000000000081
:020000040030CA
:0E000000FF021900FFA580FF0FC00FE00F40A8
:00000001FF
